:100000000C942A000C9434000C9434000C943400AA
:100010000C9434000C9434000C9434000C94340090
:100020000C9434000C9434000C9434000C94340080
:100030000C9434000C9434000C9434000C94340070
:100040000C9434000C9434000C9434000C94340060
:100050000C94340011241FBECFE5D8E0DEBFCDBF25
:100060000E9436000C9455000C9400008FE08ABB6F
:1000700031E068EC70E03BBB40E050E013C0FB01B6
:100080003197F1F70197D9F78BB32BB390E002C00A
:10009000880F991F2A95E2F78BBB4F5F5F4F443063
:0E00A000510549F380E197E2EACFF894FFCFD3
:00000001FF
