:100000000C942A000C943F000C943F000C943F0089
:100010000C943F000C943F000C943F000C943F0064
:100020000C943F000C943F000C943F000C943F0054
:100030000C943F000C943F000C943F000C943F0044
:100040000C943F000C943F000C943F000C943F0034
:100050000C943F0011241FBECFE5D8E0DEBFCDBF1A
:1000600010E0A0E6B0E0E0E1F1E002C005900D9202
:10007000AA36B107D9F70E9441000C9486000C946F
:1000800000000F931F93DF93CF93CDB7DEB72A976E
:100090000FB6F894DEBF0FBECDBF8FEF8ABB87BB14
:1000A000DE011196E0E6F0E08AE001900D928150C9
:1000B000E1F720E030E08E010F5F1F4F48EC50E089
:1000C000BE01665F7F4F0EC0F801E20FF31F808113
:1000D0008BBB88E893E1FA013197F1F70197D9F7E3
:1000E0002F5F3F4F2A3031057CF3DB018C918BBBB6
:1000F00088E893E1FA013197F1F70197D9F7119761
:10010000AC17BD0799F720E030E0ECCFF894FFCFB3
:0A011000BF86DBCFE6EDFD87FFEFB1
:00000001FF
